:100000005028002055A0000051A0000051A0000081
:1000100000000000000000000000000000000000E0
:10002000000000000000000000000000457000001B
:100030000000000000000000317100007571000038
:1000400051A0000051A0000039870000856C00001D
:100050006D8E000051A00000E568000051A0000076
:10006000AD8E0000C58D0000D58D0000E58D00002F
:10007000F58D0000058E0000158E000091870000B0
:10008000A1870000B18700001D8800002D880000B6
:100090003D8800004D8800005D880000B5670000C5
:1000A000399000006168000051A0000051A00000DC
:1000B0000000000010B5064C2378002B07D1054B3B
:1000C000002B02D0044800E000BF0123237010BDC4
:1000D000000200200000000038DB0000084B10B5D3
:1000E000002B03D00749084800E000BF0748036819
:1000F000002B00D110BD064B002BFBD09847F9E731
:10010000000000000402002038DB000038DB0000A3
:100110000000000010B5054CA047162800D1FEE7EE
:10012000002802D0024B9847A04710BDD994000088
:10013000A5950000F0B50500174C89B03C2201914F
:1001400020000021154EB047154B2100280098478C
:100150001822210002A8134FB84702AB1B78552B79
:1001600017D00021552302AA137051709170D170DD
:1001700003A81422B0470C4B019903A898471822F2
:1001800002A92000B847094B210028009847084BD6
:10019000984709B0F0BDC04638050020F7C30000FD
:1001A00079960000C1C3000077C6000001970000E7
:1001B000D5960000F8B5914B9847914D0520290040
:1001C000904FB847904C0622290020008F4EB04730
:1001D0002378552B12D055232370463B63700023A0
:1001E0000622A37023712100013328006371B047F8
:1001F000874B290005209847864B9847864E8749AC
:100200000020B04786490120B04786490220B04708
:1002100085490320B04785490420B047844C062017
:100220002100B04721000720B04721000820B04737
:1002300021000920B04721000A20B04721000B20EF
:10024000B04721000C20B04721000D20B04721000D
:100250000E20B04721000F20B04721001020B047EA
:1002600021001120B04721001220B04721001320A7
:10027000B04721001420B04729001520B8476D4E23
:10028000624B18222900300098473378552B18D03C
:1002900055230021684F142233703800674BB1702A
:1002A000717098472100664B38009847182231003A
:1002B000564B28009847564B290015209847554B18
:1002C00098474F4D4F4B2900162098475D4C4F4B98
:1002D00030222900200098472378552B25D055231C
:1002E000594E142223700021544B30009847504F30
:1002F00030003900524EB0471422504B0021534871
:10030000984739005148B047002330226370A370EA
:10031000E3702371637121003C4B280098473C4BEC
:100320002900162098473B4B9847354D1720290048
:10033000344FB847464C2C2229002000334EB0479A
:100340002378552B30D032215522002361801D3176
:1003500021710531617152392270E18022770139B2
:100360002332627762185018D377C3776370237291
:100370006372A372E37223736373A373E3732361E2
:100380006361A3615033E384230004322833D177BF
:100390001970A1772C2221002800B0471C4B29009E
:1003A000172098471B4B984729001820B847294C1D
:1003B0001C2229002000B0472378552B1DD055233F
:1003C0000021254F2370543B1422A3706370A37146
:1003D000637123713800194BE170E1719847184B34
:1003E0001349380098471C2221002800B047084BC9
:1003F000290018209847074B9847F8BD15010000C1
:10040000380500207996000074050020C1C3000063
:1004100001970000D596000035010000FECF0000D6
:1004200009D0000014D000001FD000002AD0000026
:1004300035D00000960500209A050020F7C3000083
:1004400077C60000080500201005002024050020C4
:10045000B00500207A05002082050020F0B518497B
:1004600087B0184B050000249847174FBB78A3426C
:1004700001D807B0F0BD154E3C2200213000144BCE
:100480009847A01D3100134BC0B298473100124B62
:100490001822684698473B79104E1149A34203D071
:1004A0007B79A34202D10F492800B04701A9280057
:1004B000B04701340C492800B047E4B2D5E7C04644
:1004C000FDCF000077C6000074050020380500202D
:1004D000F7C3000079960000C1C3000041C60000C8
:1004E000F6CF0000F9CF0000FCCF000070B5104B34
:1004F00086B00C000F49050098470F4B9B78A3422C
:1005000013D90E4E3C2200210D4B30000634984783
:1005100031000C4BE0B2984731000B4B1822684673
:10052000984701A92800094B9847280006B070BDDC
:1005300077C60000FDCF00007405002038050020BC
:10054000F7C3000079960000C1C3000041C6000057
:1005500010B5084B9A7800239A4209D0064A92783F
:100560009A4205D0054B06499847431E9841C3B2AD
:10057000180010BD7405002096050020B7C60000C5
:100580009A050020002130B50D4D87B0AB780400EE
:100590008B4212D014220B4B01A8984729790A4BA1
:1005A00001A8984701A92000084B9847012100287D
:1005B00003D12000064B98470100080007B030BD6A
:1005C00074050020F7C30000ED040000B7C600006A
:1005D0005105000010B5064B5A7800239A4205D009
:1005E000044B05499847431E9841C3B2180010BDFB
:1005F00008050020B7C600001005002010B5064B06
:10060000DA7800239A4205D0044B05499847431EE7
:100610009841C3B2180010BD08050020B7C60000FD
:100620002405002010B5064B04005A780549064BF6
:10063000002A00D1054920009847200010BDC0467F
:10064000080500201005002077C60000FDCF00003F
:1006500010B5064B0400DA780549064B002A00D194
:10066000054920009847200010BDC046080500201D
:100670002405002077C60000FDCF000010B5074913
:10068000074C30228870074B200098472100064B0A
:1006900016209847054B984710BDC0460805002016
:1006A00038050020C1C3000001970000D596000066
:1006B00010B50749074C30220871074B20009847B6
:1006C0002100064B16209847054B984710BDC046A1
:1006D0000805002038050020C1C300000197000074
:1006E000D596000010B50749074C30224871074BDA
:1006F000200098472100064B16209847054B984745
:1007000010BDC0460805002038050020C1C3000008
:1007100001970000D5960000012370B50A4D010035
:100720006B700A480A4B98470A4C30222900200077
:10073000094B98472100094B16209847084B9847CA
:100740000020084B984770BD0805002010050020C8
:1007500077C6000038050020C1C3000001970000E3
:10076000D59600007D060000012370B50C4D0100F8
:10077000EB700C480C4B98470C4C302229002000A1
:100780000B4B984721000B4B162098470A4B984774
:1007900000200A4B98470020094B984770BDC0467F
:1007A000080500202405002077C600003805002039
:1007B000C1C3000001970000D5960000B1060000FB
:1007C000E5060000F0B5184F87B0BE780400174D5D
:1007D000002E1BD0164B5978002905D01549200052
:1007E000A847200007B0F0BD134E3C22134B300049
:1007F0009847387931000630C0B2114B984718221B
:10080000310068460F4B984701A9E8E70A4F3C22A0
:1008100031000A4B3800984739003000084B9847A0
:1008200018223900EDE7C0467405002077C60000A5
:10083000960500209A05002038050020F7C3000027
:1008400079960000C1C30000F0B5224F87B0BB7895
:1008500005000024002B38D128001F4B9847FD24A9
:10086000002817D11D4EB378002B05D028001C4B53
:100870009847FE2400280DD11A4BFF24DB78002B6B
:1008800008D03379002B05D02800174B98474442F5
:100890004441FE34200007B0F0BD144E3C2200213C
:1008A000134B30009847A01D3100124BC0B298473F
:1008B0003100114B18226846984701A928000F4BB8
:1008C00098470028E6D10134E4B2BB78A342E4D8CB
:1008D000C2E7C0467405002051050000080500204D
:1008E000D50500007A050020FD0500003805002030
:1008F000F7C3000079960000C1C30000B7C600002E
:10090000F0B5214D87B0AA786B7807009A4202D1E2
:10091000002007B0F0BD1D4B9847F028F8D91C4CBB
:100920003C2200211B4B20009847A8781A4B063028
:100930002100C0B29847194E182221006846B047DE
:1009400014220021134B01A89847154B390001A828
:100950009847182269462000B047A8782100063041
:10096000104FC0B2B847104B9847AB7806220133FE
:1009700029002000AB70B04721000520B8470A4B82
:1009800098470120C5E7C0467405002049080000CB
:1009900038050020F7C3000079960000C1C30000AD
:1009A00077C6000001970000D5960000F8B51F4CEF
:1009B000A378012B01D80020F8BD1D4B9847637820
:1009C00006008342F7D9237907008342F3D0A37846
:1009D000184D013B9F4215DB6279DBB2A370B24236
:1009E00001D0B34201DC0123637106222100124BC6
:1009F000280098472900114B05209847104B98472D
:100A00000120D9E73C2200210E4B28009847F81D11
:100A100029000D4BC0B29847B81D2900074BC0B242
:100A200098470137064B9847FFB2D0E7740500207E
:100A30004908000038050020C1C3000001970000EC
:100A4000D5960000F7C300007996000010B507495D
:100A5000074C18224870074B200098472100064B8E
:100A600015209847054B984710BDC04696050020B5
:100A700038050020C1C3000001970000D596000092
:100A8000F8B50100194E1A4C0023002810D13C2261
:100A9000184B20009847307921000630164BC0B221
:100AA00098472100154B06209847154B984701237E
:100AB0000025B37001230622124F3100200035714A
:100AC0007371B84721000D4E0520B0470C4B984775
:100AD00028000D4B98470D49182220008D70B8470B
:100AE00021001520B047064B9847F8BD740500203B
:100AF00038050020F7C30000799600000197000038
:100B0000D5960000C1C300004D0A000096050020E4
:100B10000100002070B50C4B9B78834212D0012459
:100B20000A4E0B4B0B48B47098470B4D18223100FE
:100B30000A4B280098472900094B15209847094B74
:100B40009847200070BDC04674050020960500201F
:100B500077C600009A05002038050020C1C30000B8
:100B600001970000D596000010B50749074C2C22CC
:100B70004870074B200098472100064B17209847E4
:100B8000054B984710BDC046B00500203805002031
:100B9000C1C3000001970000D596000010B50749B9
:100BA000074C2C224880074B200098472100064B19
:100BB00017209847054B984710BDC046B005002048
:100BC00038050020C1C3000001970000D596000041
:100BD00010B50749074C2C220871074B2000984795
:100BE0002100064B17209847054B984710BDC0467B
:100BF000B005002038050020C1C3000001970000A7
:100C0000D596000010B50749074C2C224871074BB8
:100C1000200098472100064B17209847054B98471E
:100C200010BDC046B005002038050020C1C300003B
:100C300001970000D596000070B50D0004A90C784E
:100C400009494872002803D08D72CA720B734C7325
:100C5000064C2C222000064B98472100054B1720FC
:100C60009847054B984770BDB00500203805002017
:100C7000C1C3000001970000D5960000074910B5D8
:100C8000074C8B1C2C22D8772000064B984721005C
:100C9000054B17209847054B984710BDB00500201D
:100CA00038050020C1C3000001970000D596000060
:100CB000074910B5074C4B1C2C22D8772000064B57
:100CC00098472100054B17209847054B984710BDC2
:100CD000B005002038050020C1C3000001970000C6
:100CE000D5960000074910B5074C4B1D2C22D8772C
:100CF0002000064B98472100054B17209847054BCD
:100D0000984710BDB005002038050020C1C3000081
:100D100001970000D596000010B50749074C2C221A
:100D2000C884074B200098472100064B172098479E
:100D3000054B984710BDC046B0050020380500207F
:100D4000C1C3000001970000D5960000084910B506
:100D50000B00084C28332C2218702000064B9847B3
:100D60002100064B17209847054B984710BDC046F9
:100D7000B005002038050020C1C300000197000025
:100D8000D596000010B50749074C2C228861074B07
:100D9000200098472100064B17209847054B98479D
:100DA00010BDC046B005002038050020C1C30000BA
:100DB00001970000D596000010B50749074C2C227A
:100DC0004861074B200098472100064B17209847A1
:100DD000054B984710BDC046B005002038050020DF
:100DE000C1C3000001970000D5960000F7B5144D6F
:100DF000144C2869A047061C287FA047124B011CF1
:100E0000301C9847114B98470022114F114BB8479F
:100E1000114EB047114B80B298472869A047019006
:100E2000687FA047084B011C01989847074B9847DB
:100E30000022084BB847B047094B80B29847F7BD2E
:100E4000B005002069AD000029AB0000F1C1000031
:100E5000F5AD000000005940DDA60000850D000042
:100E6000B90D000070B50024642813D90A4C0B4D4D
:100E700060772C2221000A4B280098472900094B53
:100E800017209847084B9847E37B0124002B01D09B
:100E9000064B9847200070BDB005002038050020A3
:100EA000C1C3000001970000D5960000ED0D0000C1
:100EB000431E70B50024622B13D80B4C0B4D2077CA
:100EC0002C2221000A4B280098472900094B1720A3
:100ED0009847094B9847E37B0124002B01D0074B2F
:100EE0009847200070BDC046B0050020380500209E
:100EF000C1C3000001970000D5960000ED0D000071
:100F000010B50749074C2C220861074B2000984771
:100F10002100064B17209847054B984710BDC04647
:100F2000B005002038050020C1C300000197000073
:100F3000D596000010B50749074C2C22C873074B03
:100F4000200098472100064B17209847054B9847EB
:100F500010BDC046B005002038050020C1C3000008
:100F600001970000D596000010B50749074C2C22C8
:100F7000C880074B200098472100064B1720984750
:100F8000054B984710BDC046B0050020380500202D
:100F9000C1C3000001970000D596000010B50749B5
:100FA000074C2C220872074B200098472100064B63
:100FB00017209847054B984710BDC046B005002044
:100FC00038050020C1C3000001970000D59600003D
:100FD00070B50600002486B00E4D3C2200210E4B59
:100FE0002800984729000D4B2000984729000C4BFA
:100FF00018226846984701A930000A4B98470028F4
:1010000002D0012006B070BD0134E4B2052CE3D15A
:10101000F8E7C04638050020F7C3000079960000C5
:10102000C1C30000B7C6000010B5074B074C2C2207
:10103000187107492000074B98472100064B1720DD
:101040009847064B984710BD7405002038050020CE
:10105000B0050020C1C3000001970000D596000034
:1010600010B5074B074C2C22587107492000074B3D
:1010700098472100064B17209847064B984710BD0C
:101080007405002038050020B0050020C1C3000011
:1010900001970000D596000070B50A4B06009847EE
:1010A000094D04006B78834203D83000074BAC78BD
:1010B00098476B780020A34203D92000044B98473F
:1010C000012070BD490800007405002001090000DE
:1010D0002910000070B50C4D0600AB78012B01D82B
:1010E000002070BD094B98476B780400834203D8F9
:1010F0003000074BAC7898476B78A342F0D92000BA
:10110000044B98470120ECE77405002049080000D3
:1011100001090000611000007047704713B50A4BC9
:101120001A7E520705D506215A8B0A4002D092B288
:101130005A8313BD69461B8D044807310B70044C5C
:1011400013000068A047F4E70014004224020020C6
:101150004176000007B56B46D91D044B0022186884
:10116000034B98470028F6D107BDC0462402002053
:10117000F9760000F0B50125002497B002A91420EB
:10118000564B4D708C700D7098478022544B03AEB7
:1011900052035A613000534B9847312303932F3B3E
:1011A000F37231002800504B74603572984721006B
:1011B0004E4B280098474E4B220029004D48984737
:1011C000220029004C4EF020B0474C4B2200186002
:1011D0004B4B4C4900934C4823004C4FB8474C4B69
:1011E0000322186021002800B0474A4B1860A04233
:1011F00004D0230022002100474CA047FF221D21DC
:1012000006AC69442281FE3ACA771E2180236944D4
:10121000CA77DB051F21069300236944CB7708A911
:10122000CB77452169440B706360A372E372A362BC
:1012300063612382E3762376237763766377E12302
:101240005B02236280235B03E360344B132123633F
:10125000334B1F27636301235B42A363E36311AB3B
:10126000A1761A702F4D304B220030492800984744
:101270002F4B00281BD12C68200098471F231840B3
:101280001E3B83402B4A13602A68D369002BFCD194
:101290002268023313432360244C274B20009847D5
:1012A0002649274B98470423A37517B0F0BD2E6835
:1012B00030009847012338408340224AD3672A6888
:1012C000D369002BFCD102223368934333602A6830
:1012D000D369002BFCD101333360C3E74593000091
:1012E000004400411D6A0000316A00004D8E00007C
:1012F000258E00001B1100009D74000024020020B8
:10130000191100008813000013D100005984000057
:10131000200200201C020020E574000002001600DC
:1013200002001700E4050020798800000014004244
:10133000998D000000E100E09D6F00001D1100008C
:10134000618D000004E100E0F0B589B00493414BE9
:1013500003910600012118683F4B0592984702242B
:10136000002871D03D4B98470F23002704AA9B18F3
:101370001F700121F0203A4B984705000400B84245
:1013800062D0F0223900374B9847374B30009847EE
:10139000310082B2354B364898470123354C5B42C9
:1013A0000093354E3B00059A04212068B0473E006B
:1013B0002068324B9847021E20D0EF2E0ED80F2700
:1013C00004ABFF182E4B0022186839002D4B9847AC
:1013D000002803D03B78AB550136F6B2039B2A4F69
:1013E000002B04D019002800B84700282FD1274926
:1013F0002800B8470028DBD00B240BE001235B4218
:1014000000930321030020681B4CA0473400631E97
:101410009C410734049B002B0CD00E9B002B09D061
:10142000049BB34206D9002C04D1320029000E9847
:10143000174B9847002307481A0019000068154EFB
:10144000B0472800144B9847200009B0F0BD002495
:10145000E0E7C0461C02002025780000551100007E
:10146000F5C20000F7C3000087C600006D8B0000C6
:10147000E4050020200200209D8400001587000064
:1014800024020020F9760000B7C60000F4D3000063
:10149000C1C30000E574000089C30000002313B538
:1014A000034A00930349044C0448A04716BDC046B4
:1014B000881300002FD40000491300005FD0000003
:1014C00073B500240A4E009423000A4A0A493000EA
:1014D0000A4DA847A04201D1092076BD00942300FF
:1014E000044A07493000A8470028F5D00A20F4E74D
:1014F0002AD10000881300001FD10000491300000A
:1015000034D1000010B588B01422002103A8084B84
:101510009847E1220749520203A8074B9847002346
:10152000064A0093064903A8064CA04708B010BD20
:10153000F7C30000DED10000FDC5000088130000E5
:101540002FD4000049130000002313B5034A009371
:101550000349044C0448A04716BDC0468813000048
:1015600077D000004913000084D00000002313B599
:10157000034A00930349044C0448A04716BDC046E3
:10158000A86100002FD400004913000063D00000C0
:10159000002313B5034A00930349044C0448A047B1
:1015A00016BDC046881300002FD400004913000068
:1015B00008D20000002313B5034A00930349044CEA
:1015C0000448A04716BDC046983A00002FD400003A
:1015D00049130000ACD00000002313B5034A009368
:1015E0000349044C0448A04716BDC04688130000B8
:1015F0002FD4000049130000B7D00000002313B51A
:10160000034A00930349044C0448A04716BDC04652
:10161000881300002FD4000049130000C2D000003E
:10162000002313B5034A00930349044C0448A04720
:1016300016BDC046983A00002FD4000049130000A0
:10164000EBD00000002313B5034A00930349044C78
:101650000448A04716BDC046881300002FD40000E0
:10166000491300009BD00000002313B5034A0093E8
:101670000349044C0448A04716BDC0468813000027
:101680002FD4000049130000B1D10000002313B58E
:10169000034A00930349044C0448A04716BDC046C2
:1016A000581B00002FD4000049130000E9D10000AE
:1016B00002000378002B01D1137070471370203B98
:1016C000591E8B410130D218F3E70000F7B5244BC7
:1016D0000121642098470400051E3FD064220021A8
:1016E000204B9847009464231F4A20492048214DED
:1016F000A84700282ED120492000204B9847061EDD
:1017000028D11F4F1F4D39002000A8473900300055
:10171000A8471D49A84705001C4B984728001C4BAB
:101720009847C0B2012815D9632813D0831E01251C
:10173000052B10D9063B6D19052B0CD9063B01353D
:10174000052B08D9063B0135052B04D91A3801357C
:10175000A84200D9002520000E4B98472800FEBD66
:10176000F5C20000F7C30000881300002FD400006A
:10177000FFD000004913000007D10000B7C60000E9
:101780005AD70000E9C600005DD00000B116000085
:10179000E9C2000089C30000002313B5034A009387
:1017A0000349044C0448A04716BDC04688130000F6
:1017B0002FD4000049130000D8D00000F7B5050071
:1017C000214C08000F00A0470326FA2835D828002E
:1017D000A0470136052830D90121FA201B4B984734
:1017E0000400061E29D0FA220021194B98472B002D
:1017F000184AFA21184D2000A8470023174A0093E1
:1018000017492000174EB047051E18D10100FA22D3
:101810000F4B200098473B00134AFA2120000E4F3F
:10182000B8472B0000950D4A10492000B047104BD7
:1018300006002000002E04D198473000FEBD200095
:101840000B4B98470626F8E787C60000F5C2000054
:10185000F7C30000C9D1000099C5000060EA00008C
:10186000D7D1000049130000D9D100002FD40000C7
:1018700089C30000F0B58DB0069312AB1B780491BC
:10188000079306000121E620394B05929847040092
:10189000051E69D0374DE6220021A8470A22002103
:1018A00009A8A8473300344AE621344D09A8A847BF
:1018B000334D0094E623334A334909A8A847051E4F
:1018C0004ED132492000324B9847002848D02C2175
:1018D000304F2000B847861C22213000B8470390C3
:1018E00000280BD005702C4B30009847059BC0B2E8
:1018F000984220D231000498284B984703980A2137
:101900000130B847002812D0461C0D213000B847DE
:10191000002801D0002303701F4B30009847079B1D
:10192000C0B2984211D2310006981C4B9847200053
:101930001B4B984718E0059B31005A1E0498194B21
:101940009847049B059A9D54D8E7079B31005A1E7F
:101950000698144B98470023069A07995354E6E7D4
:1019600020000F4B98470C2528000DB0F0BDC04655
:10197000F5C20000F7C3000063D1000099C5000064
:1019800049130000881300002FD400006FD100001D
:10199000B7C600005BC6000087C6000077C600001F
:1019A00089C30000C1C3000073B5104B06000121BC
:1019B0001E2098470400051E15D01E2200210C4B46
:1019C000984733000B4A1E210B4D2000A8470023E7
:1019D000FA220093094DD20009492000A847094B7B
:1019E000050020009847280076BDC046F5C20000DB
:1019F000F7C3000045D0000099C50000491300005E
:101A00002FD4000089C30000002313B5034A0093BC
:101A10000349044C0448A04716BDC0468813000083
:101A20002FD400004913000040D00000002313B55C
:101A3000034A00930349044C0448A04716BDC0461E
:101A4000102700002FD4000049130000CDD0000063
:101A5000002313B5034A00930349044C0448A047EC
:101A600016BDC046881300002FD4000049130000A3
:101A7000A1D0000073B50F4B060001211E2098472E
:101A80000400051E14D01E2200210B4B9847330082
:101A90000A4A1E210A4D2000A8470023094D009341
:101AA000094A0A492000A847094B05002000984729
:101AB000280076BDF5C20000F7C30000BCD10000CD
:101AC00099C5000049130000881300002FD40000BE
:101AD00089C30000002313B5034A00930349044C53
:101AE0000448A04716BDC046881300002FD400004C
:101AF000491300000AD10000002313B5034A0093E4
:101B00000349044C0448A04716BDC0465046000097
:101B10002FD40000491300008ED000000023FA22C9
:101B200013B5D20000930249024C0348A04716BDEA
:101B30002FD4000049130000FDD1000073B5104BF5
:101B400005000E00322001219847041E15D03222D4
:101B500000210C4B98472B000B4A32210B4D00966D
:101B60002000A8470023FA220093D2000849200051
:101B7000084DA8472000084B9847002076BDC04676
:101B8000F5C20000F7C300003FD1000099C5000076
:101B90002FD400004913000089C30000F7B5294B7A
:101BA0000121462098470700051E40D0462200210B
:101BB000254B9847254C00974623254A254926481A
:101BC000A047264C051E34D1254E26493800B04783
:101BD00024492800B0472449B047244B9847C0B255
:101BE000214920702800B047204B9847C0B22049B7
:101BF00060702800B0471D4B9847C0B21D49A070C7
:101C00002800B047194B9847C0B21A49E070280025
:101C1000B047164B9847C0B2207117492800B0470B
:101C2000124B9847C0B260713800144B9847280097
:101C3000FEBD002323706370A370E3702371637192
:101C4000F2E7C046F5C20000F7C3000049130000E8
:101C5000881300002FD40000F1D00000DC05002024
:101C6000E9C60000FBD00000FDD00000E9C2000082
:101C70005DD000005AD70000F0D5000089C30000F5
:101C800010B5204B984700283AD11F4B98470028A1
:101C900036D1FA201D4CC000A0471D4B98470028A4
:101CA0002ED11C4B984700282AD11B4B984700285F
:101CB00026D1FA20C000A047184B984700281FD112
:101CC000174B984700281BD1164B9847002817D16F
:101CD000154B9847002813D1144B984700280FD173
:101CE000134B984700280BD1124B9847002807D177
:101CF000114B9847002803D1104B9847002800D07B
:101D0000102010BD9D14000021160000A17F0000CE
:101D1000491500004516000005150000B515000026
:101D2000D9150000FD150000691600008D16000091
:101D3000991700002D1A0000511A0000911500009B
:101D4000F7B505000C000026012C02D800232B70EB
:101D50000BE06B46FA22DF1D0A4B5200186839006F
:101D6000094B9847002802D106003000FEBD3B78A1
:101D70000A2BE9D00D2BE9D0013C2B70E4B20135E0
:101D80000126E1E724020020F976000070B50B4936
:101D90000B4B0400984700280ED00A4D2000290064
:101DA000094CA04729000020A0470400074B984792
:101DB0002000074B9847C0B270BDC0469CD10000C0
:101DC000B7C600005DD00000E9C60000B1160000F3
:101DD000E9C2000010B5034B03499847431E9841E0
:101DE000C0B210BDB7C60000A3D1000070B5114B42
:101DF0000E00114904009847002801D1002070BD51
:101E00000E4920000E4CA0470E490020A0470E4D61
:101E10002900A04729000020A0472B210B4B0400DC
:101E200098470028EAD021003000094B984701204C
:101E3000E5E7C046B7C6000075D100005AD70000DC
:101E4000E9C600005DD00000FBD000005BC60000CA
:101E500077C6000070B50C490C4D0600A847012458
:101E600000280FD10A493000A84700280AD10949A3
:101E70003000A847002805D107493000A847441E74
:101E8000A041C4B2200070BD7BD10000B7C60000E5
:101E900086D100008BD10000F4D3000010B5034BB5
:101EA00003499847431E9841C0B210BDB7C6000011
:101EB00095D1000010B5034B03499847431E984144
:101EC000C0B210BDB7C60000A8D10000002210B5F6
:101ED0004309C409944202D1DA01064BD2181F23E8
:101EE00018401E3B8340002901D0936110BD53610F
:101EF000FCE7C04600440041002307B5012201A9C8
:101F00008B704B702420024B0A70984707BDC04667
:101F1000459300001022014B1A607047984400411D
:101F20001022014B1A60704794440041F8B51E4FCF
:101F30001E4E38780021B0471D4B002098470024E2
:101F40000200230000211B481B4D801859411B4AE9
:101F50000023A8471A4B984738780121B047200042
:101F6000134B98472300020000211248124D80189D
:101F70005941124A0023A847114B9847387821004D
:101F8000B04720000A4B98476422002321000D4CE3
:101F9000A0470024074B094AC0186141064C0023A2
:101FA000A047074B9847F8BD25060020CD1E00002E
:101FB000119E0000BFCF6A0049A60000C0CF6A0092
:101FC0000100002089A6000070B50600002401254C
:101FD00031002141054B2940185D054B01349847DC
:101FE000042CF5D1034B984770BDC0461F06002056
:101FF000CD1E00002D1F00004B1E994170B504003E
:10200000054BC9B21878054B9847054D2009A847DC
:102010002000A84770BDC04626060020CD1E000047
:10202000C91F000010B50021014B984710BDC046E4
:10203000F91F000010B50121014B9847012010BD88
:10204000F91F000010B501200A4B98470A4B0020E9
:102050009847FA22094CD20000230021A047002310
:10206000074A084C80185941074A0023A047074BEC
:10207000984710BD25200000119E000089A6000091
:10208000BFCF6A0049A60000C0CF6A00010000204F
:1020900010B50B1C032900D90323084ADBB21278C0
:1020A0009A4201D8013AD3B2054AD35CC3188020C2
:1020B00040421843C0B2034B984710BD1E06002093
:1020C000180600202520000004230C2010B5044928
:1020D0000A7813430B701043024B984710BDC0465B
:1020E0001D06002025200000F7B54D4B98473F20E6
:1020F0004C4B4D4A18703E231370082200244B4E5F
:102100001D3B3370013B73700333B370013BF370BD
:10211000474B01AD1A70474B063A1A70464B3E3298
:102120005A70303A9A7040321C70DA7001232900DC
:10213000424F6B702B70AC70B8473B4B290018783E
:10214000B847305D29000134B847042CF9D13C4F21
:102150000020B8473B4D3C4A00230021A8470023FC
:102160003A4A3B4D801859413A4A0023A8473A4E13
:10217000B0472C4B394D18780021A8472A4B002135
:102180001878A847364B032098470020B8472D4DB4
:10219000344A00230021A84700232C4A2C4D8018E4
:1021A00059412C4A0023A847B0472D4B032098479C
:1021B0000020B847234D2B4A00230021A8470023C5
:1021C000224A234D80185941224A0023A847B0478C
:1021D000234B032098470020B8471A4D962200232E
:1021E0000021A8470023194A194D80185941194A5E
:1021F0000023A847B0470220194B984720200C4BDA
:10220000194D1B781843A847184B1C70184B98475A
:10221000184B98470222184B06201A70A847F7BDA2
:102220004990000026060020250600201F060020F9
:10223000240600201E0600201806002045930000FA
:10224000119E000089A6000050C30000BFCF6A00A5
:1022500049A60000C0CF6A0001000020CD1E00008A
:10226000C91F000094110000252000001D06002059
:10227000C9200000452000002306002070B5074B50
:102280000400984705002618B44201D1280070BD0B
:1022900020780121024B98470134F5E787C60000FA
:1022A000F91F000010B50121014B9847012010BD16
:1022B000F91F0000072370B50C001840C000393327
:1022C00018432500044B984708352078034B013408
:1022D0009847AC42F9D170BD25200000A52200002E
:1022E0000FB473B506AC40CC0A4B300098470A4B8C
:1022F000033098470500310022000194074B9847AE
:102300002800074B98472800064B984773BC08BC29
:1023100004B0184787C6000075C3000075C90000E7
:102320007D22000089C3000070B505000326002847
:102330000AD170BD064B9847001943783340022BF1
:1023400000D1203C2C7001352C78002CF2D1F0E724
:1023500059C30000F8B50500094F08000C00B84744
:1023600006002800B8470023864207D8054B3200F4
:1023700029002000984743424341DBB21800F8BDD2
:1023800087C6000095C6000070B506008CB0194DD8
:10239000022903D1184B01A898471EE0012906D154
:1023A000164BDB78002B18D001A8154BF4E72B78DF
:1023B000002B1CD0134C3C220021134B20009847CB
:1023C0002100124B002098472100114B182206A82B
:1023D000984707A901A80F4B9847310001A80E4B59
:1023E000984700230D4A2B7013700CB070BD01A8E4
:1023F0000B4BD1E789060020250600007A05002056
:102400005106000038050020F7C30000799600004F
:10241000C1C3000077C60000BD170000A806002059
:10242000C507000010B5084C2378002B0AD1074BD4
:102430009847074B1B68C01AFA239B00984201D9A2
:102440000123237010BDC04686060020297D0000B0
:10245000F4060020F8B50024484B1C70484B1C7053
:10246000484B9847FA20484B80009847474B484FC5
:102470001C707B78A34201D0464B1C70FB78464C05
:10248000464D474E012B29D123784E2B02D023787D
:10249000522B06D12B784F2B03D1424B1B78012BAB
:1024A00025D12378492B4ED12B784F2B4ED13D4B44
:1024B0001B78002B4AD03C4B5B79002B46D03B4A23
:1024C0003B4F13780133DBB213703A4A1278002A7B
:1024D00042D000213878384B984748E023784E2B7B
:1024E00002D02378522B1DD12B784F2B1AD1334A8F
:1024F0001378002B16D1324B1B78002B12D1314BA5
:102500005B79542B0ED1304B9B78012B0AD90123D8
:1025100013702E4A1370B0472D4B18602D4B1A784C
:102520002D4B1A70FB78002BBBD10027244B1F705A
:102530004E2323702B70294B1F70B047284B186017
:10254000284B1F70F8BD2378522BADD00023264AAC
:102550001370184A1370E8E7012B0CD8B0471C4BD6
:102560003A7818601C4B1A700122204B1A70002315
:102570000C4A1370EAE738780321ACE728060020FC
:10258000A8060020D51A0000A17F000068060020E0
:102590007A050020EF060020D40600209B060020CC
:1025A000297D00006706002008050020CA060020DB
:1025B0006206002061060020A559000029060020BF
:1025C000AA060020B005002074050020C9060020DE
:1025D000D80600207606002088060020A4060020E9
:1025E000F406002086060020C80600209A06002077
:1025F0007FB50122164B00211A7001A8154B13322A
:102600009847154B5B79002B07D0144B1B78002B98
:1026100003D0134B01A8984708E0124B1B78002BFE
:1026200013D0114B01A85979104B984701A8104BB2
:102630009847104B984752220F4B18600F4B1A7057
:102640000F4B033A1A7007B000BD01A80D4BE2E72B
:10265000A8060020F7C30000080500206706002038
:10266000510600002906002074050020ED0400003A
:10267000A9190000297D0000F8060020D4060020DA
:102680009B060020C507000010B5074B5B794E2B59
:1026900003D1064B1B78002B04D00122044B1A7087
:1026A000044B984710BDC046B005002067060020C7
:1026B00068060020F125000070B51B4C0125237829
:1026C000002B01D0194B1D7A194B1B78002B07D01A
:1026D000184B1B78012B04D1174BDB78002B0AD148
:1026E00070BD164B9847164B1B68C01A154B6B43B1
:1026F0009842F1D8F4E72278002A08D0124B1A78D1
:10270000124B1A7000232370114B9847E8E7114BC6
:1027100019780029F8D00C491A7008780E49087009
:1027200001200E490870EFE7C9060020B00500201F
:1027300086060020290600207A050020297D000059
:10274000D806002060EA00008806002076060020F7
:10275000892600009A0600206206002067060020F5
:1027600070B50B4B04000D0098470123094A137004
:10277000002D09D0084A13700022084B1A70084B2C
:102780001C705A70074B1C70074B1C7070BDC04604
:102790001D1B000026070020CB060020BD060020E0
:1027A0006B06002076060020BC060020002210B533
:1027B0000124084B1A70084B1C70084B984749239A
:1027C000074A21001370074A4D201370064B9847A3
:1027D00010BDC046A4060020AA060020091A000069
:1027E000D40600209B06002061270000002010B5C1
:1027F000084B1B7883420BD0074B9847074B084A7E
:102800001B681278C31A64205043984280414042AA
:1028100010BDC04626070020297D000020070020AB
:10282000CC06002010B5074B074A19781078074BE3
:10283000012905D9002198470022054B1A7010BDC7
:102840000121F8E7CB060020BC0600203D1B00005C
:102850002607002070B5114C2378002B17D1104BA0
:102860009847002813D00F4B1A78012A0FD90E4928
:10287000013A0B7893420BDA0C4A0133DBB2D55C98
:102880000B700B4B9847012323700A4B1D7070BDD2
:1028900001214D20084B9847F9E7C0462607002044
:1028A000B51E0000CB060020BD0600206B060020F0
:1028B0001D1B0000BC0600206127000070B50E4DF6
:1028C0000400A847072816D800230C4E20003370B8
:1028D000A8470B4B0B4D187021000B4B2800984755
:1028E0000A4B98470A4B18603378EA5C094B1A7018
:1028F0000122094B1A7070BD87C60000BD0600207A
:10290000CB0600206B06002077C60000297D000062
:1029100020070020BC0600202607002010B5074B2A
:102920009847074B1A68074B821A198864230020BE
:102930004B439A424041C0B210BDC046297D0000C1
:10294000F80600207806002070B50E490E4C0500F0
:10295000A0474423002812D10C492800A047522345
:1029600000280CD10A492800A0474923002806D195
:1029700008492800A0474523002800D10933180042
:1029800070BDC0460ED20000B7C600001BD20000CA
:1029900028D2000035D2000070B5154B040019781C
:1029A000C9B2002902D1134B984770BD124B1B7856
:1029B0004E2BFAD1114B1B784E2BF6D1104B1B78B6
:1029C000002BF2D00F4B1B78002BEED10E4B1D7855
:1029D000002DEAD10221074B984701220B4B1A70B8
:1029E0000B4B1C700B4B1D700B4B9847DDE7C04623
:1029F000A9060020A5590000D40600209B0600204F
:102A000086060020C90600209A06002067060020DE
:102A100062060020CA0600208926000010B5044B7B
:102A20001B78492B02D10121024B984710BDC046AB
:102A3000D40600206127000010B5034B9847034BD4
:102A40009847034B186010BD1D1B0000297D000036
:102A5000F806002070B5484A0378D478002C0BD0D3
:102A6000464A1278002A06D0412B04D10122444B59
:102A70001A70444B984770BD312B05D1424B984793
:102A80000120424B9847F6E7322B07D13E4B98473F
:102A90002200210001203E4B9847ECE7332B04D164
:102AA000394B98473B4B9847E5E7342B07D153798F
:102AB000002BE0D0344B98472000374BE2E7352B12
:102AC00007D11379002BD6D02F4B98472000334BDA
:102AD000D8E7302B0FD15378002BCCD0304D2B784A
:102AE000002B05D02F4B9847274B98472C70C2E7F7
:102AF00001232B70BFE7372B06D19378002BBAD078
:102B0000214B9847284BCEE7442B0CD10120274B73
:102B100098470120264B984720001C4B9847254B8F
:102B200041209847A7E7432B08D100201F4B984727
:102B3000002101220800164B9847F0E7382B0CD1F2
:102B4000114B98470120194B98470120184B984783
:102B500001212920184B98478DE7392B00D08AE7AF
:102B6000094B98470020114B98470120104B98477C
:102B700001215B20EEE7C0467A05002067060020B1
:102B800061060020D51A0000392A0000D94F000044
:102B9000195100004D590000D94700004547000079
:102BA000EF06002071490000194A0000690B00007F
:102BB000994E0000751A000061270000F0B51A4B0D
:102BC00091B007009847194E079073780DADDBB2AE
:102BD000174C1849022B03D01749032B00D0174973
:102BE0002800A047337816490BAE022B00D01549B8
:102BF0003000A047144B98470F49002800D10F49D7
:102C000009A8A0471149079C0A684B688868898A07
:102C1000049403910090029601950D4938000D4CE3
:102C2000A04711B0F0BDC046CD16000069060020D7
:102C300077C6000042D2000076D6000011D5000011
:102C40002FD40000F4D30000194D00002C06002002
:102C50004AD20000FDC5000010B5074B040098479C
:102C6000002807D1054B20009847054B5B78984218
:102C70008041404210BDC046D10F0000490800000D
:102C800074050020012110B5024B03481970034B55
:102C9000984710BDA806002079D6000089230000BF
:102CA00070B515000122114B04001A70002912D1D1
:102CB0000F4B1B78433BDBB2122B10D89A4013000A
:102CC0000C4A13420CD1DB0309D50B490B4EB0471C
:102CD0000B492000B047290020000A4B984770BDDF
:102CE0000549064EB0470849F3E7C046A80600204C
:102CF00076060020091004005CD6000041C60000E2
:102D000076D600008923000011D5000010B5074BCE
:102D10001978002909D1064B5B79412B05D1054B68
:102D20000A0018700448054B984710BDAA060020F9
:102D3000B005002076060020FDCF0000A12C000089
:102D400010B5FF2803D1BE38094B984706E000288C
:102D500005D1084B4430DB78002BF5D110BD01289C
:102D6000FCD1044BDB78002BF8D04230ECE7C046B6
:102D7000751A00007A05002070B5064B05000C009E
:102D80009847002804D1044BDA782A701B79237005
:102D900070BDC0469D1B0000DC050020F0B5CBB027
:102DA0000400079116000893BD4D002B13D1BD49B7
:102DB0002000A847002814D1BB492000A847071EBF
:102DC0001AD00798B94B9847B949002E07D0B94B8C
:102DD0000BA8984732E1B849A8470028E7D14BB083
:102DE000F0BDB64B9847002EF9D0B24BB44900283D
:102DF00000D0B4490BA8ECE7B3492000A8470990DC
:102E000000283ED0B14B38009847B14C6379002B75
:102E100009D03800AF4B9847E078AF4B002801D07D
:102E20003800AE4B98476378002B08D0AC4B782025
:102E30009847AC4B552098470020AB4B9847002053
:102E4000AA4B98470020AA4B98474320A94B984784
:102E50003220A94B98470220A84B98470120A84B45
:102E600098475020A74B98470120A74B9847002030
:102E7000A64B98470120A64B9847A649002EAED0F6
:102E8000A5E7A5492000A847002809D00BA8A34B17
:102E900098470999FA220BA8A14B9847A14996E7B0
:102EA000A1492000A847002807D0BFF34F8F9F4AB1
:102EB0009F4BDA60BFF34F8FFEE79E492000A84783
:102EC0009D49002800D082E79C492000A847071EA2
:102ED0000AD001207D4B98470120994B984799498A
:102EE000002E00D17BE772E797492000A847002811
:102EF00009D03800754B98470120914B9847002E18
:102F000000D16CE79AE091492000A84700280BD037
:102F10006F4B5B79002BF2D001206E4B98478C49A8
:102F2000002E00D15BE752E78A492000A84700281D
:102F30000BD0674B5B79002BE1D00020654B9847A5
:102F40008549002E00D14AE741E784492000A8477F
:102F5000071E07D001206A4B98478149002E00D1F7
:102F60003DE734E77F492000A847002807D0380014
:102F7000634B98477C49002E00D130E727E77B4917
:102F80002000A847002817D0794B20009847211D22
:102F90000200784B20009847774B20009847C3B237
:102FA000181C142B00D21420C0B2564B98477349FA
:102FB000002E00D113E70AE771492000A847071E39
:102FC00007D00120504B98476E49002E00D106E7EC
:102FD000FDE66D492000A847002807D038004A4B7D
:102FE00098476A49002E00D1F9E6F0E668492000CA
:102FF000A84700282CD020005D4B984702000328EA
:1030000000D87CE75B4BE11C2000984723784C2BD1
:1030100003D0FB224F3B134215D1E0B2344B98470B
:103020005C49002E00D1DAE6224B0BA8984721001C
:103030000BA8594CA04759490BA8A0470BA9509879
:10304000574B9847CBE65749002E00D1C7E6BEE65E
:1030500055492000A847002800D1ADE02000444B8E
:1030600098470200042800D849E7424B211D200060
:1030700098472378413BDBB2132B0BD84B4ADA40FD
:10308000D30707D5E0B21B4B9847002E00D1A6E628
:103090004749C9E74749002E00D1A0E697E6C04658
:1030A000552300008ED20000DFD20000810A00000C
:1030B000E8D2000077C6000093D20000F91A0000A1
:1030C00098D20000BCD2000022D30000690B00009F
:1030D0007A0500207D0C0000B10C0000E506000020
:1030E000650E0000B10E0000350F00009D0F0000BE
:1030F000D10B0000050C00009D0B0000690F0000C3
:10310000E50C0000190D00004D0D00002910000015
:103110006110000001D300002AD300005D0400000C
:10312000F7C300002ED3000040D300000400FA05CE
:1031300000ED00E046D30000820500204AD30000E5
:10314000994E000051D3000061D3000069D3000004
:1031500070D3000080D3000088D3000099D3000012
:103160009FD30000A6D30000ADD30000B5D300006C
:1031700087C60000D3C30000E9C20000BAD3000034
:10318000C7D30000CDD30000D5D30000DCD30000AE
:10319000E5D30000E9D3000041C600002ED40000B2
:1031A000BD170000F0D30000FAD30000052008008E
:1031B000FFD3000007D40000CF492000A847002813
:1031C00015D0CE4B20009847E11C0200CC4B2000CC
:1031D00098472000CB4B9847C0B2682800D8FEE53E
:1031E000C94B9847C949002E00D1F8E5EFE5C84919
:1031F0002000A847002816D0C04B20009847211D6A
:103200000200BF4B20009847BE4B20009847C0B239
:10321000431E602B00D9E2E5BE4B9847BE49002E05
:1032200000D1DCE5D3E5BD492000A847002819D02E
:10323000BB4B5B78002B00D161E6BA49BA4B087FE3
:103240009A8ADB8A0490487F92B2039088699BB285
:1032500002904869B54C019009690BA80091B449E6
:10326000A047EBE6B3492000A847002810D0AC4B9C
:103270005A79002A00D1B2E5DB78002B00D0AEE508
:103280000120AD4B9847AD49002E00D1A7E59EE542
:10329000AB492000A84700280FD0A14B5A79002A3B
:1032A00000D19CE5D878002800D098E5A24B98473B
:1032B000A449002E00D192E589E5A3492000A84742
:1032C000071E10D0964BDB78002B00D187E59F4B73
:1032D000DA78002A00D112E61B79002B00D00EE626
:1032E0009B4B98477BE59B492000A84700280CD0C2
:1032F0008B4BDB78002B00D171E53800964B98475B
:10330000002E00D16BE5954961E595492000A8475D
:10331000002803D00BA8934B9847F0E59249200072
:10332000A847002812D0089B002B02D1079B002B36
:103330000CD08E4B9B78002B00D1E0E501208C4B0C
:1033400098478C49002E00D149E540E58A49200084
:10335000A847071E07D00020854B98478749002EB5
:1033600000D13CE533E586492000A84700280BD072
:10337000390000973B003A003800824CA047824950
:10338000002E00D12BE522E580492000A847002827
:103390000FD01B251A2404ABED18E41829002000D7
:1033A0007B4B984722782B787A490BA85F4CA04733
:1033B00044E679492000A847071E00D09FE57749D9
:1033C0002000A847002849D0754D20002900754CE1
:1033D000A04775493800A0474A4B00789847290014
:1033E000C3B238000793A047464B007898476E4910
:1033F000C3B238000893A047424B007898476A4907
:10340000C5B23800A0473F4B00789847079BC0B231
:10341000172B00D973E5089B3B2B00D96FE5172DBF
:1034200000D96CE53B2800D969E5079B554CAB42B8
:1034300009D1089B834206D10020009003000200BE
:103440000100A0475BE5009007992B00089A012036
:10345000A0475649002E00D1C1E4B8E454492000E9
:10346000A84700281CD0254B20009847611D02006A
:10347000234B200098472000224B984780B2041C21
:10348000052800D90524A4B2E0B24A4B9847002E83
:1034900000D1A4E4220048490BA8244B9847CDE56D
:1034A00046492000A847002800D18FE0134B200098
:1034B0009847210002000831114B20009847114B1A
:1034C000200098479623011C80B2DB00984200D967
:1034D000191C8BB2022B00D202218CB22000384B77
:1034E00098473849002E00D179E40BA8364DA847FB
:1034F00021000BA8A847A1E512D4000087C6000050
:10350000D3C30000E9C20000650E000016D400001D
:1035100021D40000B10E000026D4000032D40000F7
:103520007A050020B00500202C060020FDC5000013
:1035300038D400005BD40000B10C000061D400005E
:103540007DD4000084D40000A1D400000805002030
:10355000852C0000A7D40000E5060000AED40000D2
:10356000BED40000BD2B000093D2000096050020C1
:103570004D0A0000C5D40000D9D40000DFD40000FB
:10358000FBD40000390C000001D5000015D5000067
:10359000792D00001DD500002AD5000032D500008D
:1035A000D7D50000E9C600005AD7000039D5000081
:1035B0004DD500009D0F000053D500006AD50000D6
:1035C000690F000073D5000077C600007C49200019
:1035D000A847002820D07B4B2000984721000200FC
:1035E0000831794B20009847784B20009847E12319
:1035F000011C80B2DB01984200D9191C8BB2322B1E
:1036000000D232218CB22000714B9847002E01D19C
:10361000FFF7E5FB6F4968E76F492000A8470028DE
:1036200000D06CE46D492000A847002812D0654BFB
:1036300020009847E11C0200634B200098472000BF
:10364000674B98476749002800D158E40BA8664BA0
:10365000984754E465492000654DA84700280FD0DD
:10366000584B20009847584B0200E11C2000984717
:103670002000604B9847002800D140E45E49E5E710
:103680005E492000A847002821D04E4B20009847D3
:103690004D4B0200A11C200098472000584B984732
:1036A000002E01D1FFF79BFB4F4B56490BA89847C3
:1036B000554E564D31000BA8A84721000BA8A8472E
:1036C00031000BA8A84752490BA8A847B6E45149B6
:1036D0002000A84700281FD03A4B200098473A4BBB
:1036E0000200A11C2000984720004B4B9847002E59
:1036F00001D1FFF774FB3C4B42490BA89847424E5F
:10370000424D31000BA8A84721000BA8A847310063
:103710000BA8A8474149D7E741492000A8470028FE
:1037200017D0284B20009847274B0200E11C2000AF
:10373000984720003B4B9847002E01D1FFF74FFBE5
:10374000294B3949002801D0FFF754FB3749FFF7CF
:1037500051FB37492000A847002811D0194B200001
:103760009847E11C0200184B200098472000314B7D
:1037700098473149002E01D1FFF731FBFFF727FBB6
:103780002E492000A847002801D1FFF7B8FB2C4B99
:10379000DB78002B01D1FFF7B2FB0A4B20009847E2
:1037A000E11C0200084B200098472000254B984759
:1037B0002549002E01D1FFF712FBFFF708FBC04699
:1037C0007FD5000087C60000D3C30000E9C2000017
:1037D0009D0B000088D5000094D5000098D500000E
:1037E000991000009CD5000077C60000A8D5000005
:1037F00055230000D5100000ACD50000EFD5000027
:1038000001090000B8D50000FCCF000041C600004F
:10381000C3D50000D6D50000AD090000D9D5000001
:10382000EED50000110B0000F2D5000012D600000A
:1038300031D600001907000035D6000043D600003D
:103840007A0500206907000047D600008023F0B504
:103850000024CC4A5B021168C5B00B43136007A972
:103860001B20C94B0C708C704C709847C74B984705
:103870000522C74B91211C70C64B89001C70C64B9A
:103880001C70C64B1C70C64B1A70C64BC64A1C70C7
:103890004E231370C54A11800121C54A1470C54AD0
:1038A0001370C54A1370C54A1470C54A1470C54ACE
:1038B0001170C54A1470C54A1470C54A1370C54BBF
:1038C0001C70C54B1C70C54B5A78A24201D0C44A2B
:1038D0001470DB78002B0CD00023C24A1370C24A4C
:1038E0001370C24A1370C24A1370C24A1370C24A9C
:1038F0001370C24B1A6A059313010ED58023C04C76
:103900005B022268BF4813432360BF4DA84723686A
:10391000BE4ABF4813402360A84700231C000393FE
:103920000493059B1D6A80231B051D4000D15DE2A9
:10393000002C1AD1B74B9847092811D1B64B98479C
:103940000028EED11434B54B9847944B013C1870C5
:10395000E4B23220AC4B9847002CF4D10134E0E7BC
:10396000FA20A94BC0009847DBE7039B002B08D146
:10397000AB4B98470028D4D10122854B03941A7091
:10398000CFE78C4B1A784E2A00D0AAE08A4A1278E8
:103990004E2A00D0A5E0A34CA047049BC01AA24B1E
:1039A000984205D9A0479D4B049098477B4B1870CF
:1039B0009E4B9847854B1B78002B03D18C4B1B7873
:1039C000002B01D09A4B984700219A4B40220CA81B
:1039D000984740210CA8984B9847002800D187E1D0
:1039E0000CA8964B9847002836D0A02308AC0F228D
:1039F00021000093924D1CABA847924B20009847A2
:103A0000914B070020009847904B050020009847F5
:103A100006003D4335431CA88D4BEDB29847002D61
:103A200000D196E08B491CA88B4B984700280AD000
:103A30008A4B1CA89847612104AB0200C9181CA836
:103A4000874B98470025009433002A0039001CA8B2
:103A5000844CA047724B9847594B564C1B78002B0F
:103A600000D071E123784E2B03D02378522B00D065
:103A700046E1514D2B784E2B03D02B78492B00D0AB
:103A80003EE10CA8784B9847002800D132E1522340
:103A90002370093B2B701422664B00211CA8984709
:103AA000FA25012204243B4B6D001A702800564B66
:103AB00098474021604B0CA898471CA90CA86B4B59
:103AC0009847002800D10EE1564B9847684B186084
:103AD000684B1CA89847684B002800D1674B984753
:103AE00006E11A78492A03D01B78522B00D06BE7E5
:103AF000634B9847002806D02B4B1C785F4B9847A8
:103B00002000604B9847354BDB78002B1AD0394B9F
:103B10001B78002B16D0294B1B78002B12D0364C6B
:103B20002378002B0ED13F4B9847514B1B68C01A8E
:103B3000FA23DB00984205D9012323702A4B187819
:103B4000514B9847514B9847002800D13CE7504BC8
:103B500039E720004F4B9847002800D1A6E04E4996
:103B60001CA83D4B9847002800D173E701204B4B20
:103B7000984720004A4B98474A4920004A4B9847AB
:103B800068E7C0468044004145930000751100007D
:103B9000A9060020A8060020930600209606002013
:103BA000CC0600202607002076060020780600209C
:103BB00028060020D40600209B060020AA0600202C
:103BC000680600208606002089060020C90600201D
:103BD00088060020A4060020290600207A0500207F
:103BE000EF0600206106002062060020CA060020C1
:103BF0009A06002067060020C80600200044004105
:103C000090440041B80B0000A17F0000FFFFFEFFC1
:103C100088130000C1140000811C0000CD160000B4
:103C20006D150000297D00002F750000252400007F
:103C3000B9260000F7C30000411D00008D1D0000E3
:103C400075180000D10F0000850500005105000027
:103C50002923000063D600005523000087C600001A
:103C6000D3C300009D2D0000D51D0000ED1D0000F8
:103C7000F8060020592C0000AD2700005524000054
:103C80001D2900000D2D0000412D0000ED27000032
:103C900025280000D505000079D600007D0600002B
:103CA0002506000065D60000BD170000584BDB78E4
:103CB000002B00D1CEE62000564B9847002800D1BB
:103CC000C8E655491CA8554B9847002800D1C1E6C5
:103CD0000120534B98470120524B98472000524BEC
:103CE0009847524949E7013CE4B2002C00D0DDE698
:103CF000039C16E60CA84E4B98470028F8D0EDE63A
:103D00002378492B20D14B4B1B78492B1CD10CA875
:103D1000474B9847051E00D0E0E60CA8464B984755
:103D200000280DD0454E464C31000CA8A04731006C
:103D30002800A0470400434B98472000424B01E075
:103D4000424B0CA89847D3E723784E2B02D0237818
:103D5000522B38D1374E3578EDB24F2D33D10CA8D8
:103D60003B4B98470700522806D13A4B98473A4BAD
:103D7000277018603570BBE70CA82D4B98470028BA
:103D800005D10CA8324B98470700452807D1334B83
:103D90001C78334B98472000324B9847A8E74928B6
:103DA000A6D12C4B984701212B4B277018602E4B26
:103DB000357019702D4B1B78002B99D1274B187833
:103DC0002B4B984794E72378492B91D1194B1B78BB
:103DD0004F2B8DD10CA8164B9847051E00D07DE6C1
:103DE0000CA81B4B9847452897D177E68023214C98
:103DF0005B022268204813432360204EB0472368AB
:103E00001F4A204813402360B0472C00039588E5E3
:103E10007A050020FD05000065D60000552300004E
:103E2000B1060000E5060000C50700006BD60000E3
:103E3000551E00009B0600209D1E0000EDD30000D3
:103E4000E9C60000B1160000552A00005528000000
:103E500049290000297D0000F80600207606002090
:103E6000552400000D2D0000AA0600206706002042
:103E70006127000090440041B80B0000A17F0000C2
:103E8000FFFFFEFF8813000073B56B469E1DDC1D0F
:103E90003000134B21009847124A3378957A00205E
:103EA0009D420CD8117B8B4209D88D4208D12378D2
:103EB000D17A994203D8527B9A424041C0B276BD32
:103EC0009D4202D1D37A2278F6E78B4202D1527B0F
:103ED0002378F1E79D42F2D28B4280414042EEE7E7
:103EE000792D0000B0050020F8B5254B05009B7822
:103EF000002B02D101242000F8BD224E73794E2BF5
:103F0000F8D0214B1B78002BF4D0204F3B78002BAE
:103F100003D11F4A12788242ECD01E4A0024127844
:103F20004E2AE8D11C4A12784E2AE4D11B4A147852
:103F3000002CE0D0002B1FD1194A1278002A1DD185
:103F4000737A002B0ED10022164B1A70337A9342EB
:103F50000DD0154B9847154B1860154B1D7001235C
:103F60003B70C8E7134B98470028ECD0C2E7084BDA
:103F70001D70114B9847BEE70024BCE71C00BAE750
:103F800074050020B0050020A9060020C906002005
:103F900076060020D40600209B060020860600201E
:103FA0009A06002029060020297D0000D80600205E
:103FB00088060020893E00008926000013B50123F1
:103FC0000021E122009301910B009200014C024874
:103FD000A04713BD097B00004D3800000B4B0020AB
:103FE0001B784E2B0FD10A4B1B784E2B0BD1094B54
:103FF0001B78834207D0084B1B78834203D1074BC1
:1040000001301B785840012318407047D406002027
:104010009B0600208606002068060020A8060020D7
:1040200010B5104BDA78104B1B78002A12D0002BF9
:1040300003D000200123184010BD0C4B98470028E6
:10404000F7D00B4B1B78002BF3D10120094B1B78C9
:104050005840EFE7002BECD1044B98470028E8D0FC
:10406000F3E7C0467A05002097060020DD3F0000F8
:104070009A060020C9060020F0B500249C4B93B09E
:104080001C709C4B98479C4B9847FA209B4B4000D8
:1040900098479B4B98470F2302AA9B181C70082235
:1040A000984B210006A89847974D984E2900082262
:1040B00008A8B0472900082208310AA8B0472900FB
:1040C000082210310CA8B0472900082218310EA888
:1040D000B04729000822203110A8B0478C4D06A90E
:1040E0002000A84708A90120A8470AA90220A8473C
:1040F0000CA90320A8470EA90420A84710A9052051
:10410000A847844FB847844E21002000B047834D14
:104110008348A84701212000B0478248A847774B31
:1041200081489847B84721002000B0477F48A847FA
:1041300001212000B0477E497E48A847FA206F4BF6
:10414000C0009847FA217C4B0122090100937B4D66
:1041500023002000A8477A4B05001860794B984748
:1041600000940200230028000121774DA847012573
:1041700003945F4B1B78002B0AD06A465C4B127B82
:104180001A705D4B98475D4B642098475C4B98478D
:10419000681E04281AD8604E604C002106F08AF888
:1041A000033949658B000800B0475C4C6748A0475D
:1041B00001210020B047664E664F31683800A047A5
:1041C00071683800A047B1686348A0470F2102AB6F
:1041D000C918624B00221868614B9847002810D01C
:1041E0000123FA225B425648009312010023042166
:1041F0000068554CA0475B4B1B78002B01D1013563
:10420000EDB2052D00D90125FA203C4B400098471E
:10421000AFE70800B0475448404CA04701210020B8
:10422000B0474B4B5148998ADA8A89B292B2A0477B
:10423000CCE70800B0474E48A0474E4B4E481B788D
:10424000022B00D04D48A04701210020B0474C4828
:10425000A047484B4B485A78032A04D05B784A4819
:10426000022B00D04948A047B0E70800B0474848B3
:10427000A047484B48481A78022A07D01A7847487E
:10428000012A03D01B78002B01D14548A04701210A
:104290000020B0474348A047434B44481B78002BBD
:1042A000E1D03F48012BDED03C48022BDBD03A481E
:1042B000032B8BD1D7E70800B047254B3C48197F2B
:1042C000164CC9B2A04701210020B0473948A04789
:1042D00001210920B0470026374B1B789E4201D9A7
:1042E0003648C0E73000364B01369847F6B2F3E760
:1042F00028070020F91E0000151F0000A17F000004
:10430000E9200000F7C300007FD60000C1C3000011
:10431000B52200004520000091200000E1220000AD
:10432000A7D60000B8D60000B80B0000C9D6000020
:10433000DAD60000EBD60000C54300005984000027
:1043400028020020297D00009D840000EED6000098
:104350002C060020FFD6000008D700002C02002009
:10436000F9760000B80600200FD7000020D7000023
:1043700038D700006906002045D700004AD7000062
:104380004FD700005CD7000062D7000010D50000B6
:1043900068D700009C06002073D700007AD7000081
:1043A00081D7000088D700002507002093D70000A0
:1043B0009AD70000ACD700009606002030D7000046
:1043C0003520000013B56B46D91D01230B70002367
:1043D00002481A00024C0068A04713BD2C020020BE
:1043E0004176000013B5012100220800074B9847D1
:1043F000074B00211860C82201230191009352004D
:104400000B00044C0448A04713BDC0469D74000037
:104410002C020020097B0000794000000122014BA2
:104420001A707047AB0600200122014B1A707047CA
:10443000630600200122014B1A70704763060020BA
:1044400037B5134B98470125002401906421114B87
:1044500001A89847104A1378DBB2591CC9B21170F1
:10446000042B02D90D4B14701D700D4A1378DBB26A
:10447000591CC9B21170042BE8D914708022094B61
:1044800012011D70084B1C70084B1A61DEE7C04614
:10449000297D0000297F00000D000020300200204F
:1044A000340200200C0000203102002000180040DF
:1044B00007B50D4B9847019001A80A210B4B98476F
:1044C0000B480278D2B2012AF6D10A490B7801339F
:1044D000DBB20B70132BEFD900230B7006490A7067
:1044E00006490A700370E7E7297D0000297F000074
:1044F0000C00002031020020690600203302002059
:104500000120074B02221B681B7EDBB218405907B3
:1045100000D51043134201D0042318437047C0460E
:104520000007002010B50A4C2268537E5BB2002BB6
:10453000FBDB538B0380012322681376054B9847DE
:104540000423184003D002221E2023681A7610BDCF
:104550000007002001450000020001238079517A04
:104560001840C000194201D118437047127A1A420C
:1045700001D00423F8E70223F6E70000074B1B688D
:104580005A7E52B2002AFBDB0222197B0A431A73BD
:104590005A7E52B2002AFBDB7047C046000700205B
:1045A000074B1A68537E5BB2002BFBDB1F2113699C
:1045B0008B4318431061537E5BB2002BFBDB7047CB
:1045C00000070020F7B53F4E3378012B53D100246C
:1045D0003D4B20001C703D4B98473D4D052200236C
:1045E0002100A84700233B4A3B4D801859413B4AD4
:1045F0000023A8473A4B984701AB1C706B465C718F
:104600006B469C716B46DC71364C23681B0523D5C9
:1046100078252E4B002098472D4F1922002300218A
:10462000B8470023304A2C4F801859412F4A0023A5
:10463000B8472B4B984723685B051DD501AB1A780B
:10464000002A19D101321A706B4605331B78DBB290
:10465000934211D16A46D371254A13780133DBB2F4
:104660001370022B07D900231370012221490A700D
:1046700021490A703370F7BD6A46236806325B052C
:104680000CD46B4659790533002907D101311970D3
:1046900001AB1B78DBB28B4200D113701378012B76
:1046A00009D1144A01331370134A13700023104ABE
:1046B00013703370D0E723681B05CDD5013D002D65
:1046C000A7D1C9E70C00002031020020119E000094
:1046D00089A60000571B000049A60000581B0000D7
:1046E00001000020A0440041BFCF6A00C0CF6A0093
:1046F00032020020690600203302002030B5012577
:10470000054C226AA034520B2A4002702368DB0B4E
:104710002B400B7030BDC0460044004137B56B469E
:104720009D1DDC1D2800064B2100984700202B789A
:10473000834203D120784342584101303EBDC046F8
:10474000FD46000010B50A4B04009847002C02D02B
:10475000084B1878C0B2022803D15430064B984752
:1047600005E0012801D15730F8E70028FBD010BD43
:104770001D4700009C0600201D2A0000084B30B594
:104780001C000125A0342468E40D2C400470186A34
:10479000C00B284008701B6A9B0B2B40137030BD68
:1047A0000044004173B56B465E1DDC1D9D1D30004D
:1047B000084B22002900984700203378834207D114
:1047C0002B780130002B03D120784342584102302E
:1047D00076BDC0467D47000010B50B4B04009847DE
:1047E000002C01D0094B1878002803D15430084B15
:1047F000984710BD012801D15030F8E70228FBD0BE
:104800000328F6D14230F2E7A54700002507002033
:104810001D2A000010B58CB06846174B98476A46B1
:1048200013231373C0235B01D381032353701370CD
:104830000023029313718023DB00538001230F4C6C
:1048400053750F490F4B2000984723685A7E52B288
:10485000002AFBDB80210C4A090411600F229A75A3
:104860001A7619780D3A0A431A702268537E5BB2A1
:10487000002BFBDB0CB010BD3964000000070020EA
:10488000004000427D64000000E100E0F0B500243B
:10489000250085B0114BC0B20191984702AB9E1D17
:1048A000019B9C4205D1210028000D4B984705B083
:1048B000F0BD002333800B4B98470B4FB8470123C3
:1048C0001842FAD0B8470123184202D03000074BF3
:1048D000984733880134ED18A4B2E1E7A145000000
:1048E000C9A200007D4500000145000025450000EB
:1048F000F7B51A4B00AFC0B29847194B9D44FA2345
:104900006C466D466E469B00E3187B60154B9847DE
:10491000154B984701231842FAD03000134B9847A3
:104920000028F5D17B6802369E42EFD1013080B27B
:104930000300FA225200934205D102359842F5D184
:10494000BD466089FEBD5A00A21829881688B1426A
:1049500001D22E80118001339BB2EAE7A14500000D
:1049600010FCFFFF7D4500000145000025450000CB
:10497000F7B51C4B1C4F1B78002B13D01B4B1B781F
:10498000002B0FD11A4B1B78002B0BD1194B1B7826
:10499000002B07D1184B1B78002B03D0174B1C6939
:1049A000F92C05D80020164B98475920B847F7BD79
:1049B000144E154D307F64216043A8470190707FED
:1049C00064216043A8470500104B200098470198D8
:1049D0000F4B984728000F4B98470120084B9847EA
:1049E0004B20E3E7660600201D2A0000A5060020F4
:1049F000A706002095060020740600202C06002043
:104A0000350F0000B0050020C9A20000010F000012
:104A1000850D0000B90D000007B5094B1B78002B70
:104A20000AD0084B0A22988A6946074B80B29847F9
:104A30006846064B984707BD2D20054B9847FAE777
:104A4000660600202C0600203DC90000BD2800009D
:104A50001D2A0000012170B51B4D494228681B4BDF
:104A6000984701282ED1C821194B06309847FA21C2
:104A7000184B89005843184B9847184C184BA061A5
:104A8000A26900209A4216D9164BA0699847164988
:104A9000164B9847164B9847164A174B174EB04778
:104AA0000022174B174EB047174A184B184EB04705
:104AB000184B9847C0B2002320771A0019002868C5
:104AC000154CA04770BDC046380200202578000074
:104AD0008D480000B1050000C9A200002C0600208E
:104AE000E40C000069AD000000007A4499A80000C1
:104AF000F1C100006666666666660A405DBB00003E
:104B0000000059405DB60000CDCCCCCCCCCCEC3F05
:104B1000F5AD0000DDA60000E574000030B51D4ACB
:104B20001D4B50781968C0B2272915D85968272914
:104B300012D8996827290FD8002318495370547840
:104B40000B789C4207D0164B187053780122DBB2C9
:104B50000B70144B1A7030BD19685D68124C491BFC
:104B6000CD17E48C49196940A1420FDC59689D6852
:104B7000491BCD17491969408C4207DB99681B68AE
:104B8000CB1AD9175B184B409C4201DA0223D4E7B9
:104B90000323D2E7690600202C060020240700200A
:104BA0006006002063060020B00500200121F8B552
:104BB000234E49423068234B984701283FD1123099
:104BC000214FB847002509280BDDA523FA215B00FA
:104BD0001438584389001D4B9847C3430500DB1721
:104BE0001D401220B847002409280BDDA023FA211C
:104BF0005B00143858438900144B9847C3430400A2
:104C0000DB171C401120B84700230B280BDD46237F
:104C1000FA21FF331838584389000C4B9847C24398
:104C20000300D21713400A4A156054609360094B81
:104C30009847002330681A001900074CA047F8BDB8
:104C40003802002025780000F1480000DDA30000B4
:104C50002C0600201D4B0000E5740000012170B5FA
:104C60001E4D494228681E4B9847012834D1C8215F
:104C70000F301C4B984700240F2803D90F38C31757
:104C8000C4185C40002328681A001900164DA84774
:104C9000FA21164D1648EC606043164E8900B04765
:104CA000154B421E04009A4207D8FA211348144BB0
:104CB00060438900C018B047241864212C6120008B
:104CC000B04780B2A8820F4B642120009847002291
:104CD0000D4B89B2E9821A7070BDC04638020020BF
:104CE000257800008D480000E57400002C060020A7
:104CF000610D0000C9A20000AE040000F0FEFFFF3D
:104D000000FB0400D5A3000030020020014B1878FE
:104D1000C0B27047BB060020014B1878C0B2704784
:104D200066060020044B20221870044B002801D096
:104D30005A6170479A61FCE7660600200044004112
:104D4000F8B51D00124B5C7804701B78022B1AD149
:104D5000013B01240B7021000E4B0F4F1B680F4EBF
:104D60009B0B994311703868B047FA200C4B4000F8
:104D700098473868B047042318400A4B05D01C7088
:104D80001B782B70F8BD0023E3E71870F8E7C046E6
:104D900069060020A04400414C070020594500004E
:104DA000A17F00009906002037B56B4669469C1D1F
:104DB0002200053101A8044D0733A8472078034B92
:104DC000984720783EBDC046414D0000254D00006B
:104DD00070B51E00174D184C2870184B100021702C
:104DE0009847174B1E702A78032A1AD11B78002B7C
:104DF00017D0144B80211A0028321278002A02D0D2
:104E00002278002A09D0104A11605A7880235B006A
:104E1000002A04D00C4A136070BD0C4AF4E70B4A18
:104E2000F9E78022094B1A6092181A600022084B99
:104E30001A70F1E77406002087060020254D000057
:104E4000BB060020B0050020944400419844004176
:104E5000A606002010B50A4B1B78002B0ED1094B7B
:104E60001B78002B0AD0084B1B78002B06D00122A0
:104E7000064B1A70064B9847064B186010BDC0468B
:104E80006606002074060020BB060020A60600204F
:104E9000297D0000AC06002010B5094B5A7880230C
:104EA0005B00002A04D107490A70074A136010BD4D
:104EB000064A13600028FAD0054B9847F7E7C0462A
:104EC000B0050020A606002098440041944400410B
:104ED000554E0000002210B5274B1A70274B5B7807
:104EE000DBB2032B24D1264B1A0028321278002A79
:104EF00003D0244A1278002A11D08021224A11605E
:104F00005A78002A02D0214B984710BD1B794C2BB0
:104F1000FBD01F4B472098471E4B1871F5E78022A6
:104F20001D4B1A601A4B412098471A4B5872ECE7F8
:104F3000022B0BD18022184B1A60114B1A794F2A81
:104F4000E3D10533DB7F002BDFD1EBE7002BDCD196
:104F50008022114B1A600A4B1B794F2B06D00F4A47
:104F600011781278032AD0D14C2BCED0084B4C208C
:104F70009847084B5871C8E7F106002069060020E1
:104F8000B00500208706002094440041554E0000E3
:104F9000E93E00004D0600209844004160060020D4
:104FA00010B50024084B1B78A3420AD0074B984742
:104FB000074B1B68C01A074B1A7864235343984267
:104FC0006441200010BDC046F1060020297D00008C
:104FD000C4060020D50600200022F8B53A4B050093
:104FE0001A703A4B1B78934269D0394B1A78032ACE
:104FF00007D01B78022B62D1364B0533DB7F002BA9
:105000005DD1344C631DDB7F002B03D0324B1B780A
:10501000002B04D1230028331B78002B4FD12F4FB6
:105020003B78002B47D12E4E7379002B26D0A31C42
:10503000DB7F002B0FD12B4B984700280BD1002D85
:1050400003D05430284B984717E04E20274B984701
:10505000274B187011E03379002B0FD00234E37F17
:10506000002B0BD1234B9847022807D1002DE8D104
:105070001E4B562098471E4B5874F8BD80221E4B7D
:1050800052011A60802292011A601C4B98471C4BF7
:105090001C4A18600123137020223B701A4B5A617E
:1050A0007378002B04D00023184A1370184A137029
:1050B000184B1D70E1E72B20002DDED0C2E74E20FB
:1050C000002DC3D0BEE7C046A6060020BB060020C8
:1050D00074060020B0050020870600206606002028
:1050E0007A050020A54700001D2A0000E93E0000C7
:1050F0004D0600201D47000098440041297D000016
:10510000A0060020A50600200044004173060020F0
:10511000920600204C060020F8B505001700144E3A
:10512000002902D13378002B1CD000248022114B9F
:1051300052011C70104B1A60104B98470122104B03
:10514000347018600F4B1A700F4B1F329A610F4B5F
:105150001D700F4B1F700F4B5B78A34201D00E4B9D
:105160001C70F8BD0028FCD02D200C4B9847F8E7A8
:10517000660600209D06002094440041297D000021
:10518000B40600209506002000440041F0060020EF
:10519000B00600207A050020920600201D2A00009B
:1051A000F8B57A4B7A4F1C787A4B7B4D1E783B785A
:1051B000F6B29C4206D12A79002A3FD1774A12786A
:1051C00096423BD0764A1278002A00D18BE0002C20
:1051D00035D1002B16D0220001212000714B9847B9
:1051E000714B49209847714B1873EB78002B09D00D
:1051F0006F4B5B79002B05D03B78012B02D9012244
:105200006C4B1A702B79002B17D0644B1A7896428E
:1052100011D0022E5CD11B78012B0CD80022012169
:105220001000604B9847604B562098475F4B58746E
:105230002B79002B01D0594B1E703C70F8BD032C0C
:1052400027D1022BDED8EB78002BDBD0584B5B79D3
:10525000002B12D00122574B5A70574B0133DB7F82
:10526000002B10D00022012110004E4B98474E4BCE
:10527000482098474D4B9873C4E74B4B45209847BF
:105280004A4BD873E9E7484B45209847474BD873BA
:10529000B8E7012C12D1012BB4D9EB78002B04D044
:1052A000434B5B79002BAAD1ACE7EB79002BA9D05B
:1052B0003D4B442098473D4B5873A3E7022CA1D1A6
:1052C000012B9FD8384B5A209847384B187499E7D0
:1052D000002EB0D11B78002BADD0334B5720984710
:1052E000324B9874A4E7EA78002A29D0304A5279E0
:1052F000002A1BD0012C19D8012B02D901222D4BD9
:105300001A702B79002B98D0002E00D093E7234BF6
:105310001B78002B00D18EE7002C00D18BE7264BA9
:105320005B78002BD9D0254B984781E7032CE8D137
:10533000022BE6D8002A07D001221E4B5A70E0E764
:10534000032C07D1022BDCD8174B45209847174B6D
:10535000D873D6E7022CD4D1012BD2D82B79002BCD
:105360000AD0AB79002B07D0012E05D8124B5B7801
:10537000002B01D0114B9847AB79002BC1D00E4BBD
:105380005B78002BBDD00D4B9847BAE7850600200F
:1053900025070020750600207A0500209C060020C5
:1053A0006606002019510000E93E00004D0600206D
:1053B00008050020B9060020B0050020554E000069
:1053C000F0B50026012785B003AC4F4D21002F20FA
:1053D00026706770A670A84721000C20A8472100FE
:1053E0000D20A84721000E20A84721000F20A84724
:1053F00021003720A8470223444A454D1370454AEF
:105400002E701370444B1F70444B1F70444B19791E
:105410001323B14200D1023B0D3B4248DBB20D33B6
:105420001B180120404A107001329A42FBD14922D8
:105430003E4B1A73053A5A7304329A73033ADA737D
:1054400015321A74002903D0043A5A7401329A743E
:10545000334BDB78002B08D00022354B1A705A7082
:10546000344B0D321A7002325A70334F0237FB7FC1
:10547000002B45D1314B9847294E04003379002B3E
:1054800002D02F4B984701903379012B2AD11F4A24
:105490001278A24203D01F4A1278A2420AD01E4BB1
:1054A00001991A780023914204D01C4B1B78CB1A27
:1054B0005A425341002B20D02B780133DBB22B70A2
:1054C000092B01D91F4B9847124B1C70144B1B79A9
:1054D000002B03D06A46114B12791A7064201A4BC4
:1054E0009847C4E7094B1B78A34206D0094B1B78A9
:1054F0001B1B5A425341DBB2DCE700232B70E3E76E
:105500001248114B9847E9E7459300002507002012
:1055100098060020850600209C06002075060020C5
:105520007A0500204D06002059060020DC060020E8
:10553000B906002064060020B0050020A547000041
:105540001D470000A1510000A17F0000881300004A
:1055500010B5074B9847074B1A68074B821A5988B2
:10556000FA2300209B004B439A424041C0B210BD39
:10557000297D0000AC060020B0050020002210B5F7
:1055800010000121034B9847034B55209847034BCC
:10559000987010BD19510000E93E00004D06002032
:1055A000F0B585B002ABDD1D9C1D5F1D03AB019303
:1055B00022002B0039000198444EB0470022444B92
:1055C0001A70019B434A18781178434B884208D1DE
:1055D000197826788E4204D140492E7809788E4277
:1055E0001ED01B78DBB2002B48D000281AD12378BC
:1055F000002B17D12B78002B14D102000121384B3E
:1056000098478022374B43201A60374B9847374BD7
:105610009871019822782B7839780078344CA0471B
:1056200005B0F0BD2978334B002917D02B4E3678C2
:10563000002E13D05E1DF67F002E0AD003280DD158
:105640001278032A0AD12278002A07D12A4B9847D8
:10565000DFE7012802D91278012AF4D80533DB7F6D
:10566000002BD6D00228D4D10029D2D0234B984782
:105670000122234B1860234B1A70CAE72278002AB4
:105680001BD0032813D13A78002A10D02A78002A98
:105690000DD01D4A1178002900D0137080221B4BB9
:1056A00053201A60104B9847104BD871B1E7002275
:1056B000012110000A4B9847ABE70122144B1A70E6
:1056C0000E4B9847134B1860A3E7C046414D0000AE
:1056D000630600207406002066060020BB0600203A
:1056E0001951000098440041E93E00004D06002099
:1056F000D14D0000B00500207D550000297D00003F
:105700008C0600209D060020A6060020944400413F
:10571000F1060020C4060020002010B5084B1B78BD
:1057200083420BD0074B9847074B084A1B681278F7
:10573000C31A6420504398428041404210BDC04685
:105740009D060020297D00008C0600208406002094
:105750008022074B10B51A60002201211000054B72
:105760009847054B46209847044BD87010BDC0465B
:105770009844004119510000E93E00004D06002008
:1057800070B51B4C2378002B25D01A4B98471A4B29
:105790001B68C01A194B1A786423534398421AD9CC
:1057A0000025174B25709847164B174C1A78A842BE
:1057B00012D1AA4204D018704F20144B984708E029
:1057C0002378002B05D0124B4F2022709847114BA5
:1057D00018720023237070BD002A02D01D70502063
:1057E000EBE70B4B502098470A4B5870F1E7C04647
:1057F00095060020297D0000B40600202707002020
:10580000A94D0000F0060020B00600201D2A00006F
:10581000E93E00004D06002070B5104E3378002B95
:105820001AD00F4DA8470F4C2368C01A0E4BDA88C8
:10583000FA239B00534398420ED980220B4B9201CE
:105840001A60002333700A4B5B78002B04D00122CE
:10585000084B1A70A847206070BDC046A7060020FC
:10586000297D0000A0060020B005002094440041DE
:105870007A0500207306002070B5254C2378002B94
:105880002BD0244EB047244B244D1A782B68C01AD5
:1058900064235343984220D9214BD9880A234B4390
:1058A00093421BD880221F4B92011A60B0471E4BB7
:1058B00028605B78002B02D001221C4B1A70002557
:1058C0001B4B257098471B4B1A78AA420FD01D70AE
:1058D000194CA84205D05320A04770BD0122174B98
:1058E000ECE702000121164B98474E20F4E7154DD6
:1058F000154C002803D05320A847E071EDE70200C3
:1059000001210F4B98474E20A8472070E5E7C0467D
:10591000A5060020297D0000FC060020A00600202E
:10592000B0050020944400417A0500207306002051
:10593000A94D00004C0600201D2A0000A7060020EB
:1059400019510000E93E00004D06002013B5114B2F
:1059500001AC5B78DBB2002B0DD14C3323700E4BC6
:105960005B78002B14D02923637000232000A370E0
:105970000A4B984713BD022B01D13F33EEE7032BAF
:10598000EDD1074B98472B230028E7D15F23E5E7AC
:105990005B23E9E769060020B0050020BD28000070
:1059A000A94D000010B5064B1A5C022A06D1032946
:1059B00004D10021034A044C125CA154195410BDB7
:1059C000B9060020640600204D06002010B5064CE4
:1059D0006078012801D1054B98472378012B02D12B
:1059E0000020024B984710BDB906002099290000FD
:1059F00070B50D4B5A79002A09D013241B79002B5E
:105A000000D1023C013CE4B2FF2C03D170BD5B78B5
:105A10000E24F4E7054D2B5D002BF3D1044B185DEC
:105A2000044B98472855EDE77A0500204D060020E5
:105A3000DC060020E93E0000F7B53A4B1B78002B4E
:105A400048D1394B1B78002B44D1384B1B78002BA5
:105A500040D0374CE37B002B3CD0364B1B78019376
:105A6000002B37D1344E354D3378354F002B4AD08B
:105A7000A847344B1B68C01A334B984202D96B4677
:105A80001B79337033783A69002B3DD02169490086
:105A90008A4207D8A169914202D90224002B1BD067
:105AA00000243DE00224294E294B2A4F1B78A342B3
:105AB00024D1A8473B68C01AB0420BD9012C10D1A1
:105AC000002221001000244B9847244B4220984785
:105AD000234B1873F7BD0124224EE5E70124224E23
